{
  "transactions": [
    {
      "hash": "0x63ae018aaba7f8dda7527ead747e520dd19567a7ac653a62ca241486b946fc1b",
      "transactionType": "CALL",
      "contractName": null,
      "contractAddress": "0x04A30E35908B270b18E68Daa64C5e42E028be804",
      "function": "mint(address,uint256)",
      "arguments": [
        "0xa9b95da31C3Be19979611b5deA202F16c7704805",
        "100000000000000000000"
      ],
      "transaction": {
        "type": "0x02",
        "from": "0xe9a21cc2ffa51e11318eb6d5ebb89c67b802f182",
        "to": "0x04a30e35908b270b18e68daa64c5e42e028be804",
        "gas": "0x11fe2",
        "value": "0x0",
        "data": "0x40c10f19000000000000000000000000a9b95da31c3be19979611b5dea202f16c77048050000000000000000000000000000000000000000000000056bc75e2d63100000",
        "nonce": "0x7",
        "accessList": []
      },
      "additionalContracts": [],
      "isFixedGasLimit": false
    }
  ],
  "receipts": [
    {
      "transactionHash": "0x63ae018aaba7f8dda7527ead747e520dd19567a7ac653a62ca241486b946fc1b",
      "transactionIndex": "0x1",
      "blockHash": "0x09899ed5141c5c4de4a14dc4da08dc278508c85e66c2c159c1dab4ef3e7cbbd8",
      "blockNumber": "0x6eeb6cd",
      "from": "0xe9a21CC2fFa51e11318eb6D5EBb89c67B802F182",
      "to": "0x04A30E35908B270b18E68Daa64C5e42E028be804",
      "cumulativeGasUsed": "0x187ae",
      "gasUsed": "0xd06d",
      "contractAddress": null,
      "logs": [
        {
          "address": "0x04A30E35908B270b18E68Daa64C5e42E028be804",
          "topics": [
            "0xddf252ad1be2c89b69c2b068fc378daa952ba7f163c4a11628f55a4df523b3ef",
            "0x0000000000000000000000000000000000000000000000000000000000000000",
            "0x000000000000000000000000a9b95da31c3be19979611b5dea202f16c7704805"
          ],
          "data": "0x0000000000000000000000000000000000000000000000056bc75e2d63100000",
          "blockHash": "0x09899ed5141c5c4de4a14dc4da08dc278508c85e66c2c159c1dab4ef3e7cbbd8",
          "blockNumber": "0x6eeb6cd",
          "transactionHash": "0x63ae018aaba7f8dda7527ead747e520dd19567a7ac653a62ca241486b946fc1b",
          "transactionIndex": "0x1",
          "logIndex": "0x0",
          "removed": false
        }
      ],
      "status": "0x1",
      "logsBloom": "0x04000000000000000000000000000000000000000000000000000000000000000000000080000000000000000000000000000000000000000000000000000000000000000000800000000008000000000000000000000000000000000000000000000000020000000000000000000800000000000000000000000010000000000000000000000000000000000000010000000000000000000000000000000000000000000000000000000000000000000000000000000000000000000000000000000002000000000000000000000000000000000000000000000000080020000000000000000000000000000000000000000000000000000000000002000000",
      "type": "0x2",
      "effectiveGasPrice": "0xb30e0a6f"
    }
  ],
  "libraries": [],
  "pending": [],
  "returns": {},
  "timestamp": 1708214104,
  "chain": 10,
  "multi": false,
  "commit": "27bf988"
}