{
  "transactions": [
    {
      "hash": "0xf61f8f0dbdc037a2a07844dfd62ee3016d2688ab24e83b493ed8eb2011e10057",
      "transactionType": "CALL",
      "contractName": null,
      "contractAddress": "0x5a512B031D4ef2204885c435657F14fA65E6E2a2",
      "function": "mint(address,uint256)",
      "arguments": [
        "0xda2228a2aA84EC9Ea6a32F898d2dbf8bAbE27a0c",
        "100000000000000000000"
      ],
      "transaction": {
        "type": "0x02",
        "from": "0xe9a21cc2ffa51e11318eb6d5ebb89c67b802f182",
        "to": "0x5a512b031d4ef2204885c435657f14fa65e6e2a2",
        "gas": "0xc498",
        "value": "0x0",
        "data": "0x40c10f19000000000000000000000000da2228a2aa84ec9ea6a32f898d2dbf8babe27a0c0000000000000000000000000000000000000000000000056bc75e2d63100000",
        "nonce": "0x5e",
        "accessList": []
      },
      "additionalContracts": [],
      "isFixedGasLimit": false
    },
    {
      "hash": "0xdfd531efd4e87c4911ed0d0553d22b30435b3a225dfddcf1fcd45fdf91dd535a",
      "transactionType": "CALL",
      "contractName": null,
      "contractAddress": "0x5a512B031D4ef2204885c435657F14fA65E6E2a2",
      "function": "mint(address,uint256)",
      "arguments": [
        "0x61e5481a12411Ce31EcdB594d8cb7edE26874DC3",
        "100000000000000000000"
      ],
      "transaction": {
        "type": "0x02",
        "from": "0xe9a21cc2ffa51e11318eb6d5ebb89c67b802f182",
        "to": "0x5a512b031d4ef2204885c435657f14fa65e6e2a2",
        "gas": "0xc498",
        "value": "0x0",
        "data": "0x40c10f1900000000000000000000000061e5481a12411ce31ecdb594d8cb7ede26874dc30000000000000000000000000000000000000000000000056bc75e2d63100000",
        "nonce": "0x5f",
        "accessList": []
      },
      "additionalContracts": [],
      "isFixedGasLimit": false
    },
    {
      "hash": "0xcdd2c809ddb23141549a6ff9715332e7a2b36892791697011f12edeb562a73a3",
      "transactionType": "CALL",
      "contractName": null,
      "contractAddress": "0x5a512B031D4ef2204885c435657F14fA65E6E2a2",
      "function": "mint(address,uint256)",
      "arguments": [
        "0x8eEC6e03214a2E7842e37e10F99AC8c3c89BB49E",
        "100000000000000000000"
      ],
      "transaction": {
        "type": "0x02",
        "from": "0xe9a21cc2ffa51e11318eb6d5ebb89c67b802f182",
        "to": "0x5a512b031d4ef2204885c435657f14fa65e6e2a2",
        "gas": "0xc498",
        "value": "0x0",
        "data": "0x40c10f190000000000000000000000008eec6e03214a2e7842e37e10f99ac8c3c89bb49e0000000000000000000000000000000000000000000000056bc75e2d63100000",
        "nonce": "0x60",
        "accessList": []
      },
      "additionalContracts": [],
      "isFixedGasLimit": false
    },
    {
      "hash": "0x94c8cf2a96d6fd24a7626521df4106cfcb49006a8f22dbf4344e0bcecb6f3b6a",
      "transactionType": "CALL",
      "contractName": null,
      "contractAddress": "0x5a512B031D4ef2204885c435657F14fA65E6E2a2",
      "function": "mint(address,uint256)",
      "arguments": [
        "0xB638D4Dd88C80f5e2cb5501DdF173A3E02b2a3b5",
        "100000000000000000000"
      ],
      "transaction": {
        "type": "0x02",
        "from": "0xe9a21cc2ffa51e11318eb6d5ebb89c67b802f182",
        "to": "0x5a512b031d4ef2204885c435657f14fa65e6e2a2",
        "gas": "0xc498",
        "value": "0x0",
        "data": "0x40c10f19000000000000000000000000b638d4dd88c80f5e2cb5501ddf173a3e02b2a3b50000000000000000000000000000000000000000000000056bc75e2d63100000",
        "nonce": "0x61",
        "accessList": []
      },
      "additionalContracts": [],
      "isFixedGasLimit": false
    }
  ],
  "receipts": [],
  "libraries": [],
  "pending": [
    "0xf61f8f0dbdc037a2a07844dfd62ee3016d2688ab24e83b493ed8eb2011e10057",
    "0xdfd531efd4e87c4911ed0d0553d22b30435b3a225dfddcf1fcd45fdf91dd535a",
    "0xcdd2c809ddb23141549a6ff9715332e7a2b36892791697011f12edeb562a73a3",
    "0x94c8cf2a96d6fd24a7626521df4106cfcb49006a8f22dbf4344e0bcecb6f3b6a"
  ],
  "returns": {},
  "timestamp": 1708273908,
  "chain": 10,
  "multi": false,
  "commit": "e0718cd"
}