{
  "transactions": [
    {
      "hash": "0x2c6cf67c81a425ededa0e4053d3ff9baaa497c0c7bc09cf909545d4246f9f01c",
      "transactionType": "CALL",
      "contractName": null,
      "contractAddress": "0x5a512B031D4ef2204885c435657F14fA65E6E2a2",
      "function": "mint(address,uint256)",
      "arguments": [
        "0xda2228a2aA84EC9Ea6a32F898d2dbf8bAbE27a0c",
        "100000000000000000000"
      ],
      "transaction": {
        "type": "0x02",
        "from": "0xe9a21cc2ffa51e11318eb6d5ebb89c67b802f182",
        "to": "0x5a512b031d4ef2204885c435657f14fa65e6e2a2",
        "gas": "0x17d1e",
        "value": "0x0",
        "data": "0x40c10f19000000000000000000000000da2228a2aa84ec9ea6a32f898d2dbf8babe27a0c0000000000000000000000000000000000000000000000056bc75e2d63100000",
        "nonce": "0x44",
        "accessList": []
      },
      "additionalContracts": [],
      "isFixedGasLimit": false
    },
    {
      "hash": "0x795802f05f6b679a57dd43cffa29ac770587cc50fec3cb9a38d33f19972a82b7",
      "transactionType": "CALL",
      "contractName": null,
      "contractAddress": "0x5a512B031D4ef2204885c435657F14fA65E6E2a2",
      "function": "mint(address,uint256)",
      "arguments": [
        "0x61e5481a12411Ce31EcdB594d8cb7edE26874DC3",
        "100000000000000000000"
      ],
      "transaction": {
        "type": "0x02",
        "from": "0xe9a21cc2ffa51e11318eb6d5ebb89c67b802f182",
        "to": "0x5a512b031d4ef2204885c435657f14fa65e6e2a2",
        "gas": "0x131d9",
        "value": "0x0",
        "data": "0x40c10f1900000000000000000000000061e5481a12411ce31ecdb594d8cb7ede26874dc30000000000000000000000000000000000000000000000056bc75e2d63100000",
        "nonce": "0x45",
        "accessList": []
      },
      "additionalContracts": [],
      "isFixedGasLimit": false
    },
    {
      "hash": "0xe427ff1b438a79c4cca7a1576913c5b8b0d0e541383c13431e29612ef738b09c",
      "transactionType": "CALL",
      "contractName": null,
      "contractAddress": "0x5a512B031D4ef2204885c435657F14fA65E6E2a2",
      "function": "mint(address,uint256)",
      "arguments": [
        "0x8eEC6e03214a2E7842e37e10F99AC8c3c89BB49E",
        "100000000000000000000"
      ],
      "transaction": {
        "type": "0x02",
        "from": "0xe9a21cc2ffa51e11318eb6d5ebb89c67b802f182",
        "to": "0x5a512b031d4ef2204885c435657f14fa65e6e2a2",
        "gas": "0x131d9",
        "value": "0x0",
        "data": "0x40c10f190000000000000000000000008eec6e03214a2e7842e37e10f99ac8c3c89bb49e0000000000000000000000000000000000000000000000056bc75e2d63100000",
        "nonce": "0x46",
        "accessList": []
      },
      "additionalContracts": [],
      "isFixedGasLimit": false
    },
    {
      "hash": "0x2358f36c0baf78bb94248cc49b7c903e7c58981eb13b46e45ec66bc2c6f55eb8",
      "transactionType": "CALL",
      "contractName": null,
      "contractAddress": "0x5a512B031D4ef2204885c435657F14fA65E6E2a2",
      "function": "mint(address,uint256)",
      "arguments": [
        "0xB638D4Dd88C80f5e2cb5501DdF173A3E02b2a3b5",
        "100000000000000000000"
      ],
      "transaction": {
        "type": "0x02",
        "from": "0xe9a21cc2ffa51e11318eb6d5ebb89c67b802f182",
        "to": "0x5a512b031d4ef2204885c435657f14fa65e6e2a2",
        "gas": "0x131d9",
        "value": "0x0",
        "data": "0x40c10f19000000000000000000000000b638d4dd88c80f5e2cb5501ddf173a3e02b2a3b50000000000000000000000000000000000000000000000056bc75e2d63100000",
        "nonce": "0x47",
        "accessList": []
      },
      "additionalContracts": [],
      "isFixedGasLimit": false
    }
  ],
  "receipts": [
    {
      "transactionHash": "0x2c6cf67c81a425ededa0e4053d3ff9baaa497c0c7bc09cf909545d4246f9f01c",
      "transactionIndex": "0x1",
      "blockHash": "0xe7783086c9c1e6849f226e8fa99ffb440c3560dc9cad72e6e497322df00e651a",
      "blockNumber": "0x6ef1aa8",
      "from": "0xe9a21CC2fFa51e11318eb6D5EBb89c67B802F182",
      "to": "0x5a512B031D4ef2204885c435657F14fA65E6E2a2",
      "cumulativeGasUsed": "0x1cb2e",
      "gasUsed": "0x113ed",
      "contractAddress": null,
      "logs": [
        {
          "address": "0x5a512B031D4ef2204885c435657F14fA65E6E2a2",
          "topics": [
            "0xddf252ad1be2c89b69c2b068fc378daa952ba7f163c4a11628f55a4df523b3ef",
            "0x0000000000000000000000000000000000000000000000000000000000000000",
            "0x000000000000000000000000da2228a2aa84ec9ea6a32f898d2dbf8babe27a0c"
          ],
          "data": "0x0000000000000000000000000000000000000000000000056bc75e2d63100000",
          "blockHash": "0xe7783086c9c1e6849f226e8fa99ffb440c3560dc9cad72e6e497322df00e651a",
          "blockNumber": "0x6ef1aa8",
          "transactionHash": "0x2c6cf67c81a425ededa0e4053d3ff9baaa497c0c7bc09cf909545d4246f9f01c",
          "transactionIndex": "0x1",
          "logIndex": "0x0",
          "removed": false
        }
      ],
      "status": "0x1",
      "logsBloom": "0x00000000000000000000000000000000000000000000000000000000000800000000000000000000000000000000000000000000040080000001000000000000000000000000000000000008000000000000000000000000000000000000000000000000020000000000000000000800000000000000000000000010000000000000000000000000000000000000000000000000000000000000002000000000000000000000000000000000000000000000000000000000000000000000000000000002000000000000000002000000000000000000000000000000000020000000000000000000000000000000000000000000000000000000000000000000",
      "type": "0x2",
      "effectiveGasPrice": "0xb30e4868"
    },
    {
      "transactionHash": "0x795802f05f6b679a57dd43cffa29ac770587cc50fec3cb9a38d33f19972a82b7",
      "transactionIndex": "0x2",
      "blockHash": "0xe7783086c9c1e6849f226e8fa99ffb440c3560dc9cad72e6e497322df00e651a",
      "blockNumber": "0x6ef1aa8",
      "from": "0xe9a21CC2fFa51e11318eb6D5EBb89c67B802F182",
      "to": "0x5a512B031D4ef2204885c435657F14fA65E6E2a2",
      "cumulativeGasUsed": "0x29c4f",
      "gasUsed": "0xd121",
      "contractAddress": null,
      "logs": [
        {
          "address": "0x5a512B031D4ef2204885c435657F14fA65E6E2a2",
          "topics": [
            "0xddf252ad1be2c89b69c2b068fc378daa952ba7f163c4a11628f55a4df523b3ef",
            "0x0000000000000000000000000000000000000000000000000000000000000000",
            "0x00000000000000000000000061e5481a12411ce31ecdb594d8cb7ede26874dc3"
          ],
          "data": "0x0000000000000000000000000000000000000000000000056bc75e2d63100000",
          "blockHash": "0xe7783086c9c1e6849f226e8fa99ffb440c3560dc9cad72e6e497322df00e651a",
          "blockNumber": "0x6ef1aa8",
          "transactionHash": "0x795802f05f6b679a57dd43cffa29ac770587cc50fec3cb9a38d33f19972a82b7",
          "transactionIndex": "0x2",
          "logIndex": "0x1",
          "removed": false
        }
      ],
      "status": "0x1",
      "logsBloom": "0x00000000000000000000000000000000000000000000000010000000000000000000000000000000000000000000000000000000040000000001000000000000000000000000000000000008000000000000000000000000000000000000000000000000020000000000000000000800000000000000000000000010000000000000000000000000000000000000000000000000000000000000002000000000000000000000000000000000000000000010000000000000000000000000000000000002000000000000000000000000000000000000000000000000000120000000000000000000000000000000000000000000000000000000000000000000",
      "type": "0x2",
      "effectiveGasPrice": "0xb30e4868"
    },
    {
      "transactionHash": "0xe427ff1b438a79c4cca7a1576913c5b8b0d0e541383c13431e29612ef738b09c",
      "transactionIndex": "0x3",
      "blockHash": "0xe7783086c9c1e6849f226e8fa99ffb440c3560dc9cad72e6e497322df00e651a",
      "blockNumber": "0x6ef1aa8",
      "from": "0xe9a21CC2fFa51e11318eb6D5EBb89c67B802F182",
      "to": "0x5a512B031D4ef2204885c435657F14fA65E6E2a2",
      "cumulativeGasUsed": "0x36d70",
      "gasUsed": "0xd121",
      "contractAddress": null,
      "logs": [
        {
          "address": "0x5a512B031D4ef2204885c435657F14fA65E6E2a2",
          "topics": [
            "0xddf252ad1be2c89b69c2b068fc378daa952ba7f163c4a11628f55a4df523b3ef",
            "0x0000000000000000000000000000000000000000000000000000000000000000",
            "0x0000000000000000000000008eec6e03214a2e7842e37e10f99ac8c3c89bb49e"
          ],
          "data": "0x0000000000000000000000000000000000000000000000056bc75e2d63100000",
          "blockHash": "0xe7783086c9c1e6849f226e8fa99ffb440c3560dc9cad72e6e497322df00e651a",
          "blockNumber": "0x6ef1aa8",
          "transactionHash": "0xe427ff1b438a79c4cca7a1576913c5b8b0d0e541383c13431e29612ef738b09c",
          "transactionIndex": "0x3",
          "logIndex": "0x2",
          "removed": false
        }
      ],
      "status": "0x1",
      "logsBloom": "0x00000000000000000000000000000000000000000000000000000000000000000000000000000000000000000000040000000000040000000001000000000000000000000000000000000008000000000000000000000000000000000000000000000000020000000000000000000800000000000000000000000010000000000000000000000000000000000000000000000000000000000000002000000800000000000000000000000000000000000000000000000000000000000000000000000002000000000000000000000000000000000000000000000000000020000000000000000000000000000000000000000000008000000000000000000000",
      "type": "0x2",
      "effectiveGasPrice": "0xb30e4868"
    },
    {
      "transactionHash": "0x2358f36c0baf78bb94248cc49b7c903e7c58981eb13b46e45ec66bc2c6f55eb8",
      "transactionIndex": "0x4",
      "blockHash": "0xe7783086c9c1e6849f226e8fa99ffb440c3560dc9cad72e6e497322df00e651a",
      "blockNumber": "0x6ef1aa8",
      "from": "0xe9a21CC2fFa51e11318eb6D5EBb89c67B802F182",
      "to": "0x5a512B031D4ef2204885c435657F14fA65E6E2a2",
      "cumulativeGasUsed": "0x43e91",
      "gasUsed": "0xd121",
      "contractAddress": null,
      "logs": [
        {
          "address": "0x5a512B031D4ef2204885c435657F14fA65E6E2a2",
          "topics": [
            "0xddf252ad1be2c89b69c2b068fc378daa952ba7f163c4a11628f55a4df523b3ef",
            "0x0000000000000000000000000000000000000000000000000000000000000000",
            "0x000000000000000000000000b638d4dd88c80f5e2cb5501ddf173a3e02b2a3b5"
          ],
          "data": "0x0000000000000000000000000000000000000000000000056bc75e2d63100000",
          "blockHash": "0xe7783086c9c1e6849f226e8fa99ffb440c3560dc9cad72e6e497322df00e651a",
          "blockNumber": "0x6ef1aa8",
          "transactionHash": "0x2358f36c0baf78bb94248cc49b7c903e7c58981eb13b46e45ec66bc2c6f55eb8",
          "transactionIndex": "0x4",
          "logIndex": "0x3",
          "removed": false
        }
      ],
      "status": "0x1",
      "logsBloom": "0x00000000000000000000000000000000000000000000000000000000000000000000008000000000000000000000000000100000040000000001000000000000000000000000000000000008000000000000000000000000000000000000000000000000020000000000000000000800000000000000000000000010000000000000000000000000000000000000000000000000000000000000002000000000000000000000000000000000000000000000000000000400000000000000000000000002000000000000000000000000000000000000000000000000000020000000000000000000000000000000000000000000000000000000000000000000",
      "type": "0x2",
      "effectiveGasPrice": "0xb30e4868"
    }
  ],
  "libraries": [],
  "pending": [],
  "returns": {},
  "timestamp": 1708265230,
  "chain": 10,
  "multi": false,
  "commit": "6cd006c"
}