{
  "transactions": [
    {
      "hash": "0xf61f8f0dbdc037a2a07844dfd62ee3016d2688ab24e83b493ed8eb2011e10057",
      "transactionType": "CALL",
      "contractName": null,
      "contractAddress": "0x5a512B031D4ef2204885c435657F14fA65E6E2a2",
      "function": "mint(address,uint256)",
      "arguments": [
        "0xda2228a2aA84EC9Ea6a32F898d2dbf8bAbE27a0c",
        "100000000000000000000"
      ],
      "transaction": {
        "type": "0x02",
        "from": "0xe9a21cc2ffa51e11318eb6d5ebb89c67b802f182",
        "to": "0x5a512b031d4ef2204885c435657f14fa65e6e2a2",
        "gas": "0xc498",
        "value": "0x0",
        "data": "0x40c10f19000000000000000000000000da2228a2aa84ec9ea6a32f898d2dbf8babe27a0c0000000000000000000000000000000000000000000000056bc75e2d63100000",
        "nonce": "0x5e",
        "accessList": []
      },
      "additionalContracts": [],
      "isFixedGasLimit": false
    },
    {
      "hash": "0xdfd531efd4e87c4911ed0d0553d22b30435b3a225dfddcf1fcd45fdf91dd535a",
      "transactionType": "CALL",
      "contractName": null,
      "contractAddress": "0x5a512B031D4ef2204885c435657F14fA65E6E2a2",
      "function": "mint(address,uint256)",
      "arguments": [
        "0x61e5481a12411Ce31EcdB594d8cb7edE26874DC3",
        "100000000000000000000"
      ],
      "transaction": {
        "type": "0x02",
        "from": "0xe9a21cc2ffa51e11318eb6d5ebb89c67b802f182",
        "to": "0x5a512b031d4ef2204885c435657f14fa65e6e2a2",
        "gas": "0xc498",
        "value": "0x0",
        "data": "0x40c10f1900000000000000000000000061e5481a12411ce31ecdb594d8cb7ede26874dc30000000000000000000000000000000000000000000000056bc75e2d63100000",
        "nonce": "0x5f",
        "accessList": []
      },
      "additionalContracts": [],
      "isFixedGasLimit": false
    },
    {
      "hash": "0xcdd2c809ddb23141549a6ff9715332e7a2b36892791697011f12edeb562a73a3",
      "transactionType": "CALL",
      "contractName": null,
      "contractAddress": "0x5a512B031D4ef2204885c435657F14fA65E6E2a2",
      "function": "mint(address,uint256)",
      "arguments": [
        "0x8eEC6e03214a2E7842e37e10F99AC8c3c89BB49E",
        "100000000000000000000"
      ],
      "transaction": {
        "type": "0x02",
        "from": "0xe9a21cc2ffa51e11318eb6d5ebb89c67b802f182",
        "to": "0x5a512b031d4ef2204885c435657f14fa65e6e2a2",
        "gas": "0xc498",
        "value": "0x0",
        "data": "0x40c10f190000000000000000000000008eec6e03214a2e7842e37e10f99ac8c3c89bb49e0000000000000000000000000000000000000000000000056bc75e2d63100000",
        "nonce": "0x60",
        "accessList": []
      },
      "additionalContracts": [],
      "isFixedGasLimit": false
    },
    {
      "hash": "0x94c8cf2a96d6fd24a7626521df4106cfcb49006a8f22dbf4344e0bcecb6f3b6a",
      "transactionType": "CALL",
      "contractName": null,
      "contractAddress": "0x5a512B031D4ef2204885c435657F14fA65E6E2a2",
      "function": "mint(address,uint256)",
      "arguments": [
        "0xB638D4Dd88C80f5e2cb5501DdF173A3E02b2a3b5",
        "100000000000000000000"
      ],
      "transaction": {
        "type": "0x02",
        "from": "0xe9a21cc2ffa51e11318eb6d5ebb89c67b802f182",
        "to": "0x5a512b031d4ef2204885c435657f14fa65e6e2a2",
        "gas": "0xc498",
        "value": "0x0",
        "data": "0x40c10f19000000000000000000000000b638d4dd88c80f5e2cb5501ddf173a3e02b2a3b50000000000000000000000000000000000000000000000056bc75e2d63100000",
        "nonce": "0x61",
        "accessList": []
      },
      "additionalContracts": [],
      "isFixedGasLimit": false
    }
  ],
  "receipts": [
    {
      "transactionHash": "0xf61f8f0dbdc037a2a07844dfd62ee3016d2688ab24e83b493ed8eb2011e10057",
      "transactionIndex": "0x1",
      "blockHash": "0xcb86768970874f82eba597681d64f7932cd0fdfda1f4105e3f3e946e8251734c",
      "blockNumber": "0x6ef2b9f",
      "from": "0xe9a21CC2fFa51e11318eb6D5EBb89c67B802F182",
      "to": "0x5a512B031D4ef2204885c435657F14fA65E6E2a2",
      "cumulativeGasUsed": "0x14596",
      "gasUsed": "0x8e55",
      "contractAddress": null,
      "logs": [
        {
          "address": "0x5a512B031D4ef2204885c435657F14fA65E6E2a2",
          "topics": [
            "0xddf252ad1be2c89b69c2b068fc378daa952ba7f163c4a11628f55a4df523b3ef",
            "0x0000000000000000000000000000000000000000000000000000000000000000",
            "0x000000000000000000000000da2228a2aa84ec9ea6a32f898d2dbf8babe27a0c"
          ],
          "data": "0x0000000000000000000000000000000000000000000000056bc75e2d63100000",
          "blockHash": "0xcb86768970874f82eba597681d64f7932cd0fdfda1f4105e3f3e946e8251734c",
          "blockNumber": "0x6ef2b9f",
          "transactionHash": "0xf61f8f0dbdc037a2a07844dfd62ee3016d2688ab24e83b493ed8eb2011e10057",
          "transactionIndex": "0x1",
          "logIndex": "0x0",
          "removed": false
        }
      ],
      "status": "0x1",
      "logsBloom": "0x00000000000000000000000000000000000000000000000000000000000800000000000000000000000000000000000000000000040080000001000000000000000000000000000000000008000000000000000000000000000000000000000000000000020000000000000000000800000000000000000000000010000000000000000000000000000000000000000000000000000000000000002000000000000000000000000000000000000000000000000000000000000000000000000000000002000000000000000002000000000000000000000000000000000020000000000000000000000000000000000000000000000000000000000000000000",
      "type": "0x2",
      "effectiveGasPrice": "0xb30e6f05"
    },
    {
      "transactionHash": "0xdfd531efd4e87c4911ed0d0553d22b30435b3a225dfddcf1fcd45fdf91dd535a",
      "transactionIndex": "0x2",
      "blockHash": "0xcb86768970874f82eba597681d64f7932cd0fdfda1f4105e3f3e946e8251734c",
      "blockNumber": "0x6ef2b9f",
      "from": "0xe9a21CC2fFa51e11318eb6D5EBb89c67B802F182",
      "to": "0x5a512B031D4ef2204885c435657F14fA65E6E2a2",
      "cumulativeGasUsed": "0x1d3eb",
      "gasUsed": "0x8e55",
      "contractAddress": null,
      "logs": [
        {
          "address": "0x5a512B031D4ef2204885c435657F14fA65E6E2a2",
          "topics": [
            "0xddf252ad1be2c89b69c2b068fc378daa952ba7f163c4a11628f55a4df523b3ef",
            "0x0000000000000000000000000000000000000000000000000000000000000000",
            "0x00000000000000000000000061e5481a12411ce31ecdb594d8cb7ede26874dc3"
          ],
          "data": "0x0000000000000000000000000000000000000000000000056bc75e2d63100000",
          "blockHash": "0xcb86768970874f82eba597681d64f7932cd0fdfda1f4105e3f3e946e8251734c",
          "blockNumber": "0x6ef2b9f",
          "transactionHash": "0xdfd531efd4e87c4911ed0d0553d22b30435b3a225dfddcf1fcd45fdf91dd535a",
          "transactionIndex": "0x2",
          "logIndex": "0x1",
          "removed": false
        }
      ],
      "status": "0x1",
      "logsBloom": "0x00000000000000000000000000000000000000000000000010000000000000000000000000000000000000000000000000000000040000000001000000000000000000000000000000000008000000000000000000000000000000000000000000000000020000000000000000000800000000000000000000000010000000000000000000000000000000000000000000000000000000000000002000000000000000000000000000000000000000000010000000000000000000000000000000000002000000000000000000000000000000000000000000000000000120000000000000000000000000000000000000000000000000000000000000000000",
      "type": "0x2",
      "effectiveGasPrice": "0xb30e6f05"
    },
    {
      "transactionHash": "0xcdd2c809ddb23141549a6ff9715332e7a2b36892791697011f12edeb562a73a3",
      "transactionIndex": "0x3",
      "blockHash": "0xcb86768970874f82eba597681d64f7932cd0fdfda1f4105e3f3e946e8251734c",
      "blockNumber": "0x6ef2b9f",
      "from": "0xe9a21CC2fFa51e11318eb6D5EBb89c67B802F182",
      "to": "0x5a512B031D4ef2204885c435657F14fA65E6E2a2",
      "cumulativeGasUsed": "0x26240",
      "gasUsed": "0x8e55",
      "contractAddress": null,
      "logs": [
        {
          "address": "0x5a512B031D4ef2204885c435657F14fA65E6E2a2",
          "topics": [
            "0xddf252ad1be2c89b69c2b068fc378daa952ba7f163c4a11628f55a4df523b3ef",
            "0x0000000000000000000000000000000000000000000000000000000000000000",
            "0x0000000000000000000000008eec6e03214a2e7842e37e10f99ac8c3c89bb49e"
          ],
          "data": "0x0000000000000000000000000000000000000000000000056bc75e2d63100000",
          "blockHash": "0xcb86768970874f82eba597681d64f7932cd0fdfda1f4105e3f3e946e8251734c",
          "blockNumber": "0x6ef2b9f",
          "transactionHash": "0xcdd2c809ddb23141549a6ff9715332e7a2b36892791697011f12edeb562a73a3",
          "transactionIndex": "0x3",
          "logIndex": "0x2",
          "removed": false
        }
      ],
      "status": "0x1",
      "logsBloom": "0x00000000000000000000000000000000000000000000000000000000000000000000000000000000000000000000040000000000040000000001000000000000000000000000000000000008000000000000000000000000000000000000000000000000020000000000000000000800000000000000000000000010000000000000000000000000000000000000000000000000000000000000002000000800000000000000000000000000000000000000000000000000000000000000000000000002000000000000000000000000000000000000000000000000000020000000000000000000000000000000000000000000008000000000000000000000",
      "type": "0x2",
      "effectiveGasPrice": "0xb30e6f05"
    },
    {
      "transactionHash": "0x94c8cf2a96d6fd24a7626521df4106cfcb49006a8f22dbf4344e0bcecb6f3b6a",
      "transactionIndex": "0x4",
      "blockHash": "0xcb86768970874f82eba597681d64f7932cd0fdfda1f4105e3f3e946e8251734c",
      "blockNumber": "0x6ef2b9f",
      "from": "0xe9a21CC2fFa51e11318eb6D5EBb89c67B802F182",
      "to": "0x5a512B031D4ef2204885c435657F14fA65E6E2a2",
      "cumulativeGasUsed": "0x2f095",
      "gasUsed": "0x8e55",
      "contractAddress": null,
      "logs": [
        {
          "address": "0x5a512B031D4ef2204885c435657F14fA65E6E2a2",
          "topics": [
            "0xddf252ad1be2c89b69c2b068fc378daa952ba7f163c4a11628f55a4df523b3ef",
            "0x0000000000000000000000000000000000000000000000000000000000000000",
            "0x000000000000000000000000b638d4dd88c80f5e2cb5501ddf173a3e02b2a3b5"
          ],
          "data": "0x0000000000000000000000000000000000000000000000056bc75e2d63100000",
          "blockHash": "0xcb86768970874f82eba597681d64f7932cd0fdfda1f4105e3f3e946e8251734c",
          "blockNumber": "0x6ef2b9f",
          "transactionHash": "0x94c8cf2a96d6fd24a7626521df4106cfcb49006a8f22dbf4344e0bcecb6f3b6a",
          "transactionIndex": "0x4",
          "logIndex": "0x3",
          "removed": false
        }
      ],
      "status": "0x1",
      "logsBloom": "0x00000000000000000000000000000000000000000000000000000000000000000000008000000000000000000000000000100000040000000001000000000000000000000000000000000008000000000000000000000000000000000000000000000000020000000000000000000800000000000000000000000010000000000000000000000000000000000000000000000000000000000000002000000000000000000000000000000000000000000000000000000400000000000000000000000002000000000000000000000000000000000000000000000000000020000000000000000000000000000000000000000000000000000000000000000000",
      "type": "0x2",
      "effectiveGasPrice": "0xb30e6f05"
    }
  ],
  "libraries": [],
  "pending": [],
  "returns": {},
  "timestamp": 1708273915,
  "chain": 10,
  "multi": false,
  "commit": "e0718cd"
}