{
  "transactions": [
    {
      "hash": "0x2c6cf67c81a425ededa0e4053d3ff9baaa497c0c7bc09cf909545d4246f9f01c",
      "transactionType": "CALL",
      "contractName": null,
      "contractAddress": "0x5a512B031D4ef2204885c435657F14fA65E6E2a2",
      "function": "mint(address,uint256)",
      "arguments": [
        "0xda2228a2aA84EC9Ea6a32F898d2dbf8bAbE27a0c",
        "100000000000000000000"
      ],
      "transaction": {
        "type": "0x02",
        "from": "0xe9a21cc2ffa51e11318eb6d5ebb89c67b802f182",
        "to": "0x5a512b031d4ef2204885c435657f14fa65e6e2a2",
        "gas": "0x17d1e",
        "value": "0x0",
        "data": "0x40c10f19000000000000000000000000da2228a2aa84ec9ea6a32f898d2dbf8babe27a0c0000000000000000000000000000000000000000000000056bc75e2d63100000",
        "nonce": "0x44",
        "accessList": []
      },
      "additionalContracts": [],
      "isFixedGasLimit": false
    },
    {
      "hash": "0x795802f05f6b679a57dd43cffa29ac770587cc50fec3cb9a38d33f19972a82b7",
      "transactionType": "CALL",
      "contractName": null,
      "contractAddress": "0x5a512B031D4ef2204885c435657F14fA65E6E2a2",
      "function": "mint(address,uint256)",
      "arguments": [
        "0x61e5481a12411Ce31EcdB594d8cb7edE26874DC3",
        "100000000000000000000"
      ],
      "transaction": {
        "type": "0x02",
        "from": "0xe9a21cc2ffa51e11318eb6d5ebb89c67b802f182",
        "to": "0x5a512b031d4ef2204885c435657f14fa65e6e2a2",
        "gas": "0x131d9",
        "value": "0x0",
        "data": "0x40c10f1900000000000000000000000061e5481a12411ce31ecdb594d8cb7ede26874dc30000000000000000000000000000000000000000000000056bc75e2d63100000",
        "nonce": "0x45",
        "accessList": []
      },
      "additionalContracts": [],
      "isFixedGasLimit": false
    },
    {
      "hash": "0xe427ff1b438a79c4cca7a1576913c5b8b0d0e541383c13431e29612ef738b09c",
      "transactionType": "CALL",
      "contractName": null,
      "contractAddress": "0x5a512B031D4ef2204885c435657F14fA65E6E2a2",
      "function": "mint(address,uint256)",
      "arguments": [
        "0x8eEC6e03214a2E7842e37e10F99AC8c3c89BB49E",
        "100000000000000000000"
      ],
      "transaction": {
        "type": "0x02",
        "from": "0xe9a21cc2ffa51e11318eb6d5ebb89c67b802f182",
        "to": "0x5a512b031d4ef2204885c435657f14fa65e6e2a2",
        "gas": "0x131d9",
        "value": "0x0",
        "data": "0x40c10f190000000000000000000000008eec6e03214a2e7842e37e10f99ac8c3c89bb49e0000000000000000000000000000000000000000000000056bc75e2d63100000",
        "nonce": "0x46",
        "accessList": []
      },
      "additionalContracts": [],
      "isFixedGasLimit": false
    },
    {
      "hash": "0x2358f36c0baf78bb94248cc49b7c903e7c58981eb13b46e45ec66bc2c6f55eb8",
      "transactionType": "CALL",
      "contractName": null,
      "contractAddress": "0x5a512B031D4ef2204885c435657F14fA65E6E2a2",
      "function": "mint(address,uint256)",
      "arguments": [
        "0xB638D4Dd88C80f5e2cb5501DdF173A3E02b2a3b5",
        "100000000000000000000"
      ],
      "transaction": {
        "type": "0x02",
        "from": "0xe9a21cc2ffa51e11318eb6d5ebb89c67b802f182",
        "to": "0x5a512b031d4ef2204885c435657f14fa65e6e2a2",
        "gas": "0x131d9",
        "value": "0x0",
        "data": "0x40c10f19000000000000000000000000b638d4dd88c80f5e2cb5501ddf173a3e02b2a3b50000000000000000000000000000000000000000000000056bc75e2d63100000",
        "nonce": "0x47",
        "accessList": []
      },
      "additionalContracts": [],
      "isFixedGasLimit": false
    }
  ],
  "receipts": [],
  "libraries": [],
  "pending": [
    "0x2c6cf67c81a425ededa0e4053d3ff9baaa497c0c7bc09cf909545d4246f9f01c",
    "0x795802f05f6b679a57dd43cffa29ac770587cc50fec3cb9a38d33f19972a82b7",
    "0xe427ff1b438a79c4cca7a1576913c5b8b0d0e541383c13431e29612ef738b09c",
    "0x2358f36c0baf78bb94248cc49b7c903e7c58981eb13b46e45ec66bc2c6f55eb8"
  ],
  "returns": {},
  "timestamp": 1708265223,
  "chain": 10,
  "multi": false,
  "commit": "6cd006c"
}