{
  "transactions": [
    {
      "hash": "0x21c96de73b6e00974f449e3320a9eba3ea09dc59c200c25bed39eafcc6d424c7",
      "transactionType": "CALL",
      "contractName": null,
      "contractAddress": "0x5F9b4EF03212fB632097B4F87353995125053E68",
      "function": "mint(address,uint256)",
      "arguments": [
        "0xB638D4Dd88C80f5e2cb5501DdF173A3E02b2a3b5",
        "100000000000000000000"
      ],
      "transaction": {
        "type": "0x02",
        "from": "0xe9a21cc2ffa51e11318eb6d5ebb89c67b802f182",
        "to": "0x5f9b4ef03212fb632097b4f87353995125053e68",
        "gas": "0x17bf8",
        "value": "0x0",
        "data": "0x40c10f19000000000000000000000000b638d4dd88c80f5e2cb5501ddf173a3e02b2a3b50000000000000000000000000000000000000000000000056bc75e2d63100000",
        "nonce": "0x1e",
        "accessList": []
      },
      "additionalContracts": [],
      "isFixedGasLimit": false
    }
  ],
  "receipts": [
    {
      "transactionHash": "0x21c96de73b6e00974f449e3320a9eba3ea09dc59c200c25bed39eafcc6d424c7",
      "transactionIndex": "0x1",
      "blockHash": "0xf68c0705f467efb2db96ac3d851bb453c16f324ce343a5d8c4f67b991b6b80cc",
      "blockNumber": "0x6eeeada",
      "from": "0xe9a21CC2fFa51e11318eb6D5EBb89c67B802F182",
      "to": "0x5F9b4EF03212fB632097B4F87353995125053E68",
      "cumulativeGasUsed": "0x1ca4d",
      "gasUsed": "0x11318",
      "contractAddress": null,
      "logs": [
        {
          "address": "0x5F9b4EF03212fB632097B4F87353995125053E68",
          "topics": [
            "0xddf252ad1be2c89b69c2b068fc378daa952ba7f163c4a11628f55a4df523b3ef",
            "0x0000000000000000000000000000000000000000000000000000000000000000",
            "0x000000000000000000000000b638d4dd88c80f5e2cb5501ddf173a3e02b2a3b5"
          ],
          "data": "0x0000000000000000000000000000000000000000000000056bc75e2d63100000",
          "blockHash": "0xf68c0705f467efb2db96ac3d851bb453c16f324ce343a5d8c4f67b991b6b80cc",
          "blockNumber": "0x6eeeada",
          "transactionHash": "0x21c96de73b6e00974f449e3320a9eba3ea09dc59c200c25bed39eafcc6d424c7",
          "transactionIndex": "0x1",
          "logIndex": "0x0",
          "removed": false
        }
      ],
      "status": "0x1",
      "logsBloom": "0x00000000000000000000000000000100000000000000000000000000000000000000008000000000000000000000000000100000000000000000000000000000000000000000000000000008000000000000000000000000000000000000000000000000020000000000000000000800000000000000000000000010000000000000000000000000000000000000000000020000000000000000000200000000000000000000000000000000000000000000000000000400000000000000000000000002000000000000000000000000000000000000000000000000000020000000000000000000000000000000000000000000000000000000000000000000",
      "type": "0x2",
      "effectiveGasPrice": "0xb30ee949"
    }
  ],
  "libraries": [],
  "pending": [],
  "returns": {},
  "timestamp": 1708240754,
  "chain": 10,
  "multi": false,
  "commit": "36238b6"
}