{
  "transactions": [
    {
      "hash": "0x072164f7037e404b85fc1d0d710b7acfe7d117afc9d4c690faffc0ff4669d49d",
      "transactionType": "CALL",
      "contractName": null,
      "contractAddress": "0x5F9b4EF03212fB632097B4F87353995125053E68",
      "function": "mint(address,uint256)",
      "arguments": [
        "0xda2228a2aA84EC9Ea6a32F898d2dbf8bAbE27a0c",
        "100000000000000000000"
      ],
      "transaction": {
        "type": "0x02",
        "from": "0xe9a21cc2ffa51e11318eb6d5ebb89c67b802f182",
        "to": "0x5f9b4ef03212fb632097b4f87353995125053e68",
        "gas": "0x11fb4",
        "value": "0x0",
        "data": "0x40c10f19000000000000000000000000da2228a2aa84ec9ea6a32f898d2dbf8babe27a0c0000000000000000000000000000000000000000000000056bc75e2d63100000",
        "nonce": "0x23",
        "accessList": []
      },
      "additionalContracts": [],
      "isFixedGasLimit": false
    }
  ],
  "receipts": [
    {
      "transactionHash": "0x072164f7037e404b85fc1d0d710b7acfe7d117afc9d4c690faffc0ff4669d49d",
      "transactionIndex": "0x1",
      "blockHash": "0xef01dc90f4aa11feb6ee7afa5e2cfc96d7837dc15fda50a995b3237007a6f764",
      "blockNumber": "0x6eef4f1",
      "from": "0xe9a21CC2fFa51e11318eb6D5EBb89c67B802F182",
      "to": "0x5F9b4EF03212fB632097B4F87353995125053E68",
      "cumulativeGasUsed": "0x1878d",
      "gasUsed": "0xd04c",
      "contractAddress": null,
      "logs": [
        {
          "address": "0x5F9b4EF03212fB632097B4F87353995125053E68",
          "topics": [
            "0xddf252ad1be2c89b69c2b068fc378daa952ba7f163c4a11628f55a4df523b3ef",
            "0x0000000000000000000000000000000000000000000000000000000000000000",
            "0x000000000000000000000000da2228a2aa84ec9ea6a32f898d2dbf8babe27a0c"
          ],
          "data": "0x0000000000000000000000000000000000000000000000056bc75e2d63100000",
          "blockHash": "0xef01dc90f4aa11feb6ee7afa5e2cfc96d7837dc15fda50a995b3237007a6f764",
          "blockNumber": "0x6eef4f1",
          "transactionHash": "0x072164f7037e404b85fc1d0d710b7acfe7d117afc9d4c690faffc0ff4669d49d",
          "transactionIndex": "0x1",
          "logIndex": "0x0",
          "removed": false
        }
      ],
      "status": "0x1",
      "logsBloom": "0x00000000000000000000000000000100000000000000000000000000000800000000000000000000000000000000000000000000000080000000000000000000000000000000000000000008000000000000000000000000000000000000000000000000020000000000000000000800000000000000000000000010000000000000000000000000000000000000000000020000000000000000000200000000000000000000000000000000000000000000000000000000000000000000000000000002000000000000000002000000000000000000000000000000000020000000000000000000000000000000000000000000000000000000000000000000",
      "type": "0x2",
      "effectiveGasPrice": "0xb30fe537"
    }
  ],
  "libraries": [],
  "pending": [],
  "returns": {},
  "timestamp": 1708245919,
  "chain": 10,
  "multi": false,
  "commit": "36238b6"
}