{
  "transactions": [
    {
      "hash": "0x02624bbcf78c5a4c9e2840b6588693a2bc2fe0b8009be4b5bfa7b372a73c3de2",
      "transactionType": "CALL",
      "contractName": null,
      "contractAddress": "0x5F9b4EF03212fB632097B4F87353995125053E68",
      "function": "mint(address,uint256)",
      "arguments": [
        "0xda2228a2aA84EC9Ea6a32F898d2dbf8bAbE27a0c",
        "100000000000000000000"
      ],
      "transaction": {
        "type": "0x02",
        "from": "0xe9a21cc2ffa51e11318eb6d5ebb89c67b802f182",
        "to": "0x5f9b4ef03212fb632097b4f87353995125053e68",
        "gas": "0xc372",
        "value": "0x0",
        "data": "0x40c10f19000000000000000000000000da2228a2aa84ec9ea6a32f898d2dbf8babe27a0c0000000000000000000000000000000000000000000000056bc75e2d63100000",
        "nonce": "0x3e",
        "accessList": []
      },
      "additionalContracts": [],
      "isFixedGasLimit": false
    },
    {
      "hash": "0xd7a0b74badb7b4e74177d97296998bb519ad2653505ed56a62b769589020744e",
      "transactionType": "CALL",
      "contractName": null,
      "contractAddress": "0x5F9b4EF03212fB632097B4F87353995125053E68",
      "function": "mint(address,uint256)",
      "arguments": [
        "0x61e5481a12411Ce31EcdB594d8cb7edE26874DC3",
        "100000000000000000000"
      ],
      "transaction": {
        "type": "0x02",
        "from": "0xe9a21cc2ffa51e11318eb6d5ebb89c67b802f182",
        "to": "0x5f9b4ef03212fb632097b4f87353995125053e68",
        "gas": "0xc372",
        "value": "0x0",
        "data": "0x40c10f1900000000000000000000000061e5481a12411ce31ecdb594d8cb7ede26874dc30000000000000000000000000000000000000000000000056bc75e2d63100000",
        "nonce": "0x3f",
        "accessList": []
      },
      "additionalContracts": [],
      "isFixedGasLimit": false
    },
    {
      "hash": "0x92419380f18b216becbf3c4a21764428418fd23cd295269a1c8a043d586aa5a6",
      "transactionType": "CALL",
      "contractName": null,
      "contractAddress": "0x5F9b4EF03212fB632097B4F87353995125053E68",
      "function": "mint(address,uint256)",
      "arguments": [
        "0x8eEC6e03214a2E7842e37e10F99AC8c3c89BB49E",
        "100000000000000000000"
      ],
      "transaction": {
        "type": "0x02",
        "from": "0xe9a21cc2ffa51e11318eb6d5ebb89c67b802f182",
        "to": "0x5f9b4ef03212fb632097b4f87353995125053e68",
        "gas": "0xc372",
        "value": "0x0",
        "data": "0x40c10f190000000000000000000000008eec6e03214a2e7842e37e10f99ac8c3c89bb49e0000000000000000000000000000000000000000000000056bc75e2d63100000",
        "nonce": "0x40",
        "accessList": []
      },
      "additionalContracts": [],
      "isFixedGasLimit": false
    },
    {
      "hash": "0xe4ff8d20fc1c3534382a093c7047451e2c33979008b3974036f5b7bed6f0b430",
      "transactionType": "CALL",
      "contractName": null,
      "contractAddress": "0x5F9b4EF03212fB632097B4F87353995125053E68",
      "function": "mint(address,uint256)",
      "arguments": [
        "0xB638D4Dd88C80f5e2cb5501DdF173A3E02b2a3b5",
        "100000000000000000000"
      ],
      "transaction": {
        "type": "0x02",
        "from": "0xe9a21cc2ffa51e11318eb6d5ebb89c67b802f182",
        "to": "0x5f9b4ef03212fb632097b4f87353995125053e68",
        "gas": "0xc372",
        "value": "0x0",
        "data": "0x40c10f19000000000000000000000000b638d4dd88c80f5e2cb5501ddf173a3e02b2a3b50000000000000000000000000000000000000000000000056bc75e2d63100000",
        "nonce": "0x41",
        "accessList": []
      },
      "additionalContracts": [],
      "isFixedGasLimit": false
    }
  ],
  "receipts": [],
  "libraries": [],
  "pending": [
    "0x02624bbcf78c5a4c9e2840b6588693a2bc2fe0b8009be4b5bfa7b372a73c3de2",
    "0xd7a0b74badb7b4e74177d97296998bb519ad2653505ed56a62b769589020744e",
    "0x92419380f18b216becbf3c4a21764428418fd23cd295269a1c8a043d586aa5a6",
    "0xe4ff8d20fc1c3534382a093c7047451e2c33979008b3974036f5b7bed6f0b430"
  ],
  "returns": {},
  "timestamp": 1708264354,
  "chain": 10,
  "multi": false,
  "commit": "6cd006c"
}