{
  "transactions": [
    {
      "hash": "0xaf5c36bba80ab75a54867b825b4577932baea4edce3eada446163d0d98ab3693",
      "transactionType": "CALL",
      "contractName": null,
      "contractAddress": "0x5F9b4EF03212fB632097B4F87353995125053E68",
      "function": "mint(address,uint256)",
      "arguments": [
        "0x8eEC6e03214a2E7842e37e10F99AC8c3c89BB49E",
        "100000000000000000000"
      ],
      "transaction": {
        "type": "0x02",
        "from": "0xe9a21cc2ffa51e11318eb6d5ebb89c67b802f182",
        "to": "0x5f9b4ef03212fb632097b4f87353995125053e68",
        "gas": "0x11fb4",
        "value": "0x0",
        "data": "0x40c10f190000000000000000000000008eec6e03214a2e7842e37e10f99ac8c3c89bb49e0000000000000000000000000000000000000000000000056bc75e2d63100000",
        "nonce": "0x2b",
        "accessList": []
      },
      "additionalContracts": [],
      "isFixedGasLimit": false
    }
  ],
  "receipts": [
    {
      "transactionHash": "0xaf5c36bba80ab75a54867b825b4577932baea4edce3eada446163d0d98ab3693",
      "transactionIndex": "0x1",
      "blockHash": "0x9aea822b98adabb655dbb235b9f4b41dd174e5fdbcae267d98640e10997fe5f2",
      "blockNumber": "0x6ef0b96",
      "from": "0xe9a21CC2fFa51e11318eb6D5EBb89c67B802F182",
      "to": "0x5F9b4EF03212fB632097B4F87353995125053E68",
      "cumulativeGasUsed": "0x18775",
      "gasUsed": "0xd04c",
      "contractAddress": null,
      "logs": [
        {
          "address": "0x5F9b4EF03212fB632097B4F87353995125053E68",
          "topics": [
            "0xddf252ad1be2c89b69c2b068fc378daa952ba7f163c4a11628f55a4df523b3ef",
            "0x0000000000000000000000000000000000000000000000000000000000000000",
            "0x0000000000000000000000008eec6e03214a2e7842e37e10f99ac8c3c89bb49e"
          ],
          "data": "0x0000000000000000000000000000000000000000000000056bc75e2d63100000",
          "blockHash": "0x9aea822b98adabb655dbb235b9f4b41dd174e5fdbcae267d98640e10997fe5f2",
          "blockNumber": "0x6ef0b96",
          "transactionHash": "0xaf5c36bba80ab75a54867b825b4577932baea4edce3eada446163d0d98ab3693",
          "transactionIndex": "0x1",
          "logIndex": "0x0",
          "removed": false
        }
      ],
      "status": "0x1",
      "logsBloom": "0x00000000000000000000000000000100000000000000000000000000000000000000000000000000000000000000040000000000000000000000000000000000000000000000000000000008000000000000000000000000000000000000000000000000020000000000000000000800000000000000000000000010000000000000000000000000000000000000000000020000000000000000000200000800000000000000000000000000000000000000000000000000000000000000000000000002000000000000000000000000000000000000000000000000000020000000000000000000000000000000000000000000008000000000000000000000",
      "type": "0x2",
      "effectiveGasPrice": "0xb3191460"
    }
  ],
  "libraries": [],
  "pending": [],
  "returns": {},
  "timestamp": 1708257514,
  "chain": 10,
  "multi": false,
  "commit": "6cd006c"
}